:100000000C9449010C94080E0C9490010C949001EE
:100010000C9490010C9490010C9490010C9490011C
:100020000C9490010C9490010C94681F0C943C204B
:100030000C94AA1A0C9490010C9490010C949001C9
:100040000C9490010C9490010C9490010C949001EC
:100050000C9490010C94011B0C9490010C94900151
:100060000C9490010C9490010C9490010C949001CC
:100070000C9490010C9490010C9490010C949001BC
:100080000C9490010C9490010C9490010C949001AC
:100090000C9490010C9490010C9490010C9490019C
:1000A0000C9490010C9490010C94900129003A005A
:1000B0003B003C003D003E003F0040004100350059
:1000C0001E001F0020002100220023002400250024
:1000D0002B0014001A000800150017001C0018005F
:1000E0000C00E00004001600070009000A000B00E5
:1000F0000D000E00E1001D001B00060019000500A8
:10010000110010003600E000E300E2002C000000C7
:10011000605D00002C00E600420043004400450002
:100120000000460047004800615D260027002D00C2
:100130002A002E00530054005500560012001300F0
:100140002F00300031005F006000610000000F00F0
:1001500033003400000028005C005D005E005700A2
:1001600037003800E5000000520059005A005B00DB
:100170000000E7007600E400500051004F006200EC
:100180006300580016037400680072006500650083
:1001900074006F006F006E00650000001A034100DC
:1001A0007900640065006E0020005600690073004D
:1001B00073006500720000000403090409023B009B
:1001C000020100A0FA090400000103010100092155
:1001D000110100012240000705810308000A0904FB
:1001E0000100010300000009211101000122490062
:1001F0000705820320000A1201100100000008ED2B
:10020000FE000001000102000105010902A10185B3
:10021000020901A100050919012908150025019508
:1002200008750181020501093009311581257F9585
:10023000027508810609381581257F9501750881A9
:1002400006050C0A38021581257F9501750881067F
:10025000C0C005010906A101050719E029E715003D
:100260002501950875018102950175088101050731
:10027000190029FF150026FF009506750881000565
:1002800008190129059505750191029501750391DC
:1002900001C011241FBECFEFDAE0DEBFCDBF04B630
:1002A00003FE27C08091980290919902A0919A0232
:1002B000B0919B028730904BA740B04BD1F4109285
:1002C00098021092990210929A0210929B0214BE08
:1002D00084B7877F84BF0FB6F894A895809160009B
:1002E000886180936000109260000FBEE0E0F8E348
:1002F000099511E0A0E0B1E0ECE2F5E402C0059060
:100300000D92A035B107D9F722E0A0E5B1E001C018
:100310001D92A839B207E1F70E94A41C0C94702228
:100320000C94000080362DE5920729F081369D451A
:1003300091F081E00895FB0182818823D1F38091BF
:1003400053018F5F8093530190910001891788F3C7
:1003500010925301EECFFB018281882351F38091EB
:1003600052018F5F8093520190910001891708F329
:1003700010925201DECF882321F08130C1F080E05D
:10038000089580915301882359F08130C1F78FE49B
:1003900091E0611102C080E591E00E944C02EFCF34
:1003A0008FE490E06111F9CF80E590E0F6CF809185
:1003B0005201882349F0813011F78BE4611101C0AB
:1003C0008EE40E942011DBCF89EF90E0662329F3B1
:1003D0008AEF90E0E2CFCF93DF939C013A9521150D
:1003E0003F4168F5EC01CC27D170DC01AA27B2703F
:1003F000AC01442754709C012227387094FF11C02F
:1004000080E1CD2B09F480E0AB2B09F08062452B15
:1004100009F08064232B09F08068FB01DF91CF9104
:10042000099481E0CD2B09F480E0AB2B09F08260C8
:10043000452B09F08460232B81F38860EECFDF9198
:10044000CF910895CF93DF93EC01805E91090897D7
:1004500020F062E673E1209711F468E271E1CE01C9
:100460000E94EB018C2FDF91CF910C943B10CF9326
:10047000DF93EC010E94B310CE01805E91090897D2
:1004800020F069E673E1209711F46FE271E1CE018B
:10049000DF91CF910C94EB01CF93DF93EC010E949D
:1004A0002202CE01DF91CF910C94370281E00895B2
:1004B0000C94920108950C945A021F93CF93DF93EA
:1004C00000D000D00F92CDB7DEB749835A836B833B
:1004D0003091AF0189819A8131111DC06623B9F035
:1004E0002223A9F00E94F017182F682F89819A8182
:1004F0000E949C1769817A81812F0F900F900F9035
:100500000F900F90DF91CF911F910C942B030E94BD
:10051000C817182FEFCF0E94F01769817A81EDCFAD
:10052000FC01262F408151816281738184810C946A
:100530005D02CF93DF93EC0160E00E949002BE0168
:10054000DF91CF910C945B020E94F2040E94200381
:100550000C9417050C941A0508950E947E130E94AE
:10056000AC022FEF84E39CE0215080409040E1F703
:1005700000C000000C94661B0F931F93CF93DF9372
:100580008C0161E00E949002EC01B8010E945802C7
:100590008823A9F1B801CE010E945A0B882379F172
:1005A000B801CE010E94AC0B882349F1B801CE01FD
:1005B0000E94CF0C882319F1F8018281882361F011
:1005C000CB35FDE5DF0721F170F4C115ECE5DE0761
:1005D000A1F0CF3DDC45C9F0C801DF91CF911F915B
:1005E0000F910C945602CC358DE5D807A1F0CD358E
:1005F000DD4591F70E949718EFCF0E94AD0280E091
:10060000DF91CF911F910F9108950E94FD19F7CFAF
:100610000E94A018E1CF0E94A318DECF08950C9489
:100620000E0381E00895CF93C82F0E941103882301
:1006300019F0C0FF03C02E9ACF9108952E98FCCFD9
:10064000269A2E980895CF93C82F0E940F038C2FBF
:10065000CF910C941303972F70E029E0929F600DC7
:10066000711D1124FB019CE6899FE00DF11D1124F1
:10067000EE0FFF1FE455FF4F859194910895CF939E
:10068000DF930E942B030E941704EC01811522E5E1
:10069000920778F5811531E5930708F098C08F3FF0
:1006A000910509F0B8F48D3E910508F06FC0853AC8
:1006B000910540F48430910548F4019739F0D0E079
:1006C000C0E004C0805E91090897C8F7CE01DF91B1
:1006D000CF910895811540E5940708F05CC0C115DD
:1006E00080E4D80708F054C0C11590E2D90770F330
:1006F000E6CF811526E5920718F5811535E59307B4
:1007000008F07DC0811544E5940708F073C0982F68
:10071000969596959E0123703327C115D34508F40D
:100720005BC0C1E0D0E002C0CC0FDD1F2A95E2F72C
:1007300030E2939FC0011124C82BD92BDA68C6CFB1
:10074000C1159AE5D90778F4C11529E5D20708F053
:1007500060C0C11538E5D30708F4B1CFDC2FCC2732
:10076000C06FD06AB3CFCE0190568115904208F089
:10077000A6CF8D2F8F710E94AE0490E0982F88270E
:1007800088279F719C012C2BE90141C0D0659ECF29
:10079000DF70D06A9BCFE4E096958795EA95E1F704
:1007A00083702C2F26952695237090E2299F900127
:1007B0001124382B8C2F8370C1E0D0E002C0CC0F05
:1007C000DD1F8A95E2F7C22BD32BDC687FCFD82FB1
:1007D000CC27C16FD06A7ACFC1E0D0E002C0CC0F85
:1007E000DD1F2A95E2F720E2929FC0011124C82B59
:1007F000D92BEBCFD82FCC27C46FD06A67CF0E94FC
:10080000AE04C82FD0E0DC2FCC27CC27DF71D0621C
:100810005DCF8C2F8F700E94AE0434E0D695C795C3
:100820003A95E1F7CF709C2FEC01D0694FCF823819
:100830009105B1F1B0F48133910509F475C048F424
:100840008932910509F469C08A32910509F473C0AF
:1008500008958533910509F459C08933910501F153
:100860000895833E9105A9F138F4803E9105F9F091
:10087000823E910549F10895863E9105A9F1873E92
:100880009105C9F1843E910519F52091500221FF8F
:100890001FC080914F0284FD14C087EE90E0089540
:1008A00020914F022370A1F080EE90E008952091F6
:1008B0004F0220FD47C03091500230FF09C024FF95
:1008C00044C090E080E004C020914F0222FDF7CFA9
:1008D000089520914F0222FD3BC03091500230FD1F
:1008E000E3CF24FFF5CFEDCF20914F0223FFF0CFD0
:1008F00024FDE7CFD2CF20914F0223FD2CC03091B1
:10090000500231FFEECF84EE90E0089520914F0227
:1009100025FFDECF89E290E0089520914F0225FF68
:10092000D7CF85E390E0089520914F0226FFD0CFE6
:100930008AE290E0089520914F0226FFC9CF81E31B
:1009400090E0089589E390E0089583EE90E00895A3
:1009500082EE90E0089586EE90E0089590914F0227
:1009600092FF06C0282F28712830F9F4877F846011
:1009700093FF06C0282F28712831F1F4877E846107
:100980002091500220FF06C0382F38713830D9F43A
:10099000877F816021FF06C0282F28712831D1F47C
:1009A000877E816194FD877E0895282F24712430ED
:1009B000F9F68B7F8860DCCF282F2471243101F772
:1009C0008B7E8861DDCF382F3171313019F78E7F02
:1009D0008860E0CF282F2171213121F78E7E886138
:1009E000E1CF08950E945819811102C00E94FD199B
:1009F0000E946319809343020E946B1990935002E6
:100A000080934F020E94F1040E946719682F70E0E2
:100A100090E080E00E949E1660912E0270912F025D
:100A200080913002909131020C94D81608950C9464
:100A3000160508950C941905E82FF0E0EE0FFF1F3E
:100A4000E759FD4F808191810895089580EA8A9544
:100A5000F1F7089500C008950C942605F894E82F46
:100A6000E295EF70F0E031A1282F2F7081E090E047
:100A700001C0880F2A95EAF7982F9095932391A3A8
:100A800092A1892B82A37894089508950C9445052A
:100A90000F931F93CF93DF93CDB7DEB765970FB654
:100AA000F894DEBF0FBECDBF0E94420780911601B1
:100AB000811134C0FE01379686E0DF011D928A95D0
:100AC000E9F784EF898385EF8A8383E38B8381E36E
:100AD0008C8387EF8D8386EF8E83CE010196EAE0CB
:100AE000F1E09E01235F3F4FDC014D91CD01419329
:100AF000A217B307C9F729E0E6E3F1E0DE011D968E
:100B000001900D922A95E1F7FC01A1E0B1E0CE0140
:100B1000469621912D93E817F907D9F78091160190
:100B200096E0811190E09093820286E0891B809389
:100B300081020AE011E0F80181918F010E942E05E7
:100B4000F1E000311F07B9F701E011E0D8018D9104
:100B50008D010E942E05B1E00A301B07B9F7E1E5CF
:100B6000F2E0A9E6B2E0119211921D921D9282E08C
:100B7000E936F807C1F786E00E94EB060E94A4025E
:100B800065960FB6F894DEBF0FBECDBFDF91CF9153
:100B90001F910F910C944C07CF92DF92FF920F930D
:100BA0001F93CF93DF93CDB7DEB72C970FB6F89492
:100BB000DEBF0FBECDBF0E942507F82E60918202D6
:100BC000882309F463C08E010F5F1F4F8CE0F8018A
:100BD00011928A95E9F7862F90E0880F991FB80146
:100BE00087599D4F0E94050D81112AC080915401A3
:100BF0008F5F80935401863008F446C0E0918102F3
:100C0000F0E0EE0FFF1FE759FD4FD801CE010D9622
:100C1000119211921D921D92A817B907C9F70E944F
:100C2000AA028F2D2C960FB6F894DEBF0FBECDBF53
:100C3000DF91CF911F910F91FF90DF90CF9008959A
:100C400010925401E0918102F0E0EE0FFF1F9F012E
:100C500027593D4F6901D801AE01435F5F4FF12C29
:100C6000F601619171916F012D913D9162177307AA
:100C700039F0BF0162507109FB0131832083F82EE6
:100C8000A417B50769F7CBCFF12CC9CF70E0660F79
:100C9000771F67597D4F8091810290E0880F991FDF
:100CA00087599D4F0E94340D0E944605BACF8F92FE
:100CB0009F92AF92BF92CF92DF92EF92FF920F93EB
:100CC0001F93CF930AE011E091E5E92E92E0F92E0F
:100CD00020E1A22E21E0B22EC0E0CC24C394D12C7E
:100CE000F80181918F01F894E82FE295EF70F0E020
:100CF00021A18F70A60102C0440F551F8A95E2F70B
:100D0000CA01922F982B91A392A18095892382A347
:100D100078940E942A05E1E0F1E030E020E0912C97
:100D2000812C4191A42FA295AF70B0E090968C9148
:100D300090E04F7002C0959587954A95E2F780FD47
:100D400045C0C601022E02C0880F991F0A94E2F71F
:100D5000882A992A2F5F3F4F2930310511F7F80172
:100D6000319780810E942E050E942C05F701808119
:100D700091818816990669F19182808281E0C82B61
:100D8000F2E0EF0EF11CA016B10609F0A9CF6091B8
:100D9000820270E0660F771F67597D4F2C2F46E067
:100DA00081E592E00E94EC060E94CC05C11101C0D1
:100DB000C82F8C2FCF911F910F91FF90EF90DF9054
:100DC000CF90BF90AF909F908F90089590E080E07B
:100DD000BFCF80E0D4CF0895FF920F931F93CF939E
:100DE000DF93F82E092F162FD72FC42F222349F077
:100DF00081E0809357010E94DA1A90935601809304
:100E00005501809157018823A1F08091550190915F
:100E100056010E94F21A069760F0EF2DF02FA12FD5
:100E2000BD2F90E080E0D0E08C179D0744F0109239
:100E30005701DF91CF911F910F91FF90089521915C
:100E400031912D933D930196EFCF809158018111FF
:100E500007C00E94F321882351F081E0809358015C
:100E600081E090915801913009F080E0089582E08E
:100E7000809358010E94EE21F3CF0E94250791E054
:100E8000892708950E943D07809316010E94250737
:100E900081110C94F90C08950E942507811102C05C
:100EA0000C94FF0C089580915F0180FF12C0609147
:100EB0001C0185E0689FB0011124759567957595B3
:100EC000679560387105A8F561157105A1F1862F48
:100ED000089581FF09C060911C0185E0689FB00101
:100EE000112475956795EDCF60911C0182FD0AC0B4
:100EF00080915E018823D1F090911B0160911C01CB
:100F0000891728F085E0689FB0011124DACF869F09
:100F1000B001112485E0869F9001879F300D112438
:100F2000692F70E0C9010E940022CBCF65E070E01C
:100F3000CECF8FE7089581E0089580915F0180FF13
:100F40000CC06091180170E075956795759567956F
:100F50006115710549F1862F089581FF06C06091E2
:100F6000180170E075956795F3CF6091180182FDC7
:100F70000BC090915D019923A1F0609117018091C0
:100F80001801961738F0682F70E06038710500F38B
:100F90008FE70895899FC001112470E00E9400220C
:100FA000F4CF61E070E0D7CF81E008958D3E31F459
:100FB0000E94530781958093630108958E3E19F432
:100FC0000E945307F8CF8F3E31F40E94530781955A
:100FD000809362010895803F19F40E945307F8CF6F
:100FE000893F29F40E949D078093640108958A3FF8
:100FF00021F40E949D078195F7CF8B3F31F40E9429
:101000009D0781958093650108958C3F19F40E9496
:101010009D07F8CF9FE0980F983070F4815F990B8F
:1010200021E030E001C0220F8A95EAF7809161014A
:10103000822B8093610108958D3F31F480915F018F
:10104000816080935F0108958E3F21F480915F015C
:101050008260F7CF8F3FB9F780915F018460F1CF55
:10106000409162018D3E59F48091630187FF0DC06C
:101070001092630141110BC010925E0108C08E3EB8
:1010800081F48091630118169CF3442381F08091D0
:10109000640190916501892B09F05AC010925D019D
:1010A00008958F3E49F447FFF0CF1092620180917E
:1010B00063018111ECCFE0CF803F19F41416ACF33B
:1010C000E4CF90916401893F29F41916F4F6109247
:1010D0006401DBCF8A3F19F497FFD7CFF8CF909107
:1010E00065018B3F29F497FFD0CF10926501CDCFDA
:1010F0008C3F19F41916CCF3C8CF9FE0980F9830A5
:1011000090F4815F990B21E030E0B90102C0660FD5
:10111000771F8A95E2F7CB01809590916101892331
:1011200080936101B2CF8D3F31F480915F018E7F5A
:1011300080935F01AACF8E3F21F480915F018D7F64
:10114000F7CF8F3F09F0A1CF80915F018B7FF0CF68
:1011500008950E94DA1A9C019091620180916301C6
:10116000982B21F030935C0120935B0190916401F6
:1011700080916501982B21F030935A0120935901F9
:1011800080E691E00C94C30EEF92FF920F931F93B1
:10119000CF93DF9300D000D000D0CDB7DEB786E08C
:1011A000E0E6F1E0DE01119601900D928A95E1F7FB
:1011B000E0906201F090630100916401109165017B
:1011C0001092620110926301109264011092650105
:1011D0008E2D8F2991F080915B0190915C010E948E
:1011E000F21AAC0190915E01992309F43FC08091FD
:1011F0001D018417150608F447C0802F812B91F03C
:101200008091590190915A010E94F21AAC0190917B
:101210005D01992309F477C080911901841715069F
:1012200008F47FC08091620190916301892B9091B5
:101230006401892B90916501892B11F00E94A90806
:1012400086E0FE013196A0E6B1E001900D928A950C
:10125000E1F726960FB6F894DEBF0FBECDBFDF9143
:10126000CF911F910F91FF90EF90089520911E0153
:101270008AE0289F900111242417350708F0BDCF7C
:101280009F5F90935E0102C09F3FD1F7EE2059F01F
:101290000E9453079FEF1E140CF491E0899F802D4C
:1012A000112480936201FF2059F00E9453079FEFA1
:1012B0001F140CF491E0899F802D11248093630109
:1012C00030916201332309F498CF209163012223E6
:1012D00009F493CF45EB3403C0011124992359F04D
:1012E0009093620145EB240390011124332339F0DC
:1012F0003093630182CF81E080936201F3CF81E07C
:10130000809363017ACF20911A018AE0289F90018F
:1013100011242417350708F085CF9F5F90935D0156
:1013200002C09F3FD1F7002359F00E949D079FEF15
:1013300010160CF491E0899F802D11248093640194
:10134000112359F00E949D079FEF11160CF491E0B4
:10135000899F802D1124809365013091640133238E
:1013600009F460CF20916501222309F45BCF45EB9E
:101370003403C0011124992359F09093640145EB83
:10138000240390011124332339F0309365014ACFAF
:1013900081E080936401F3CF81E08093650142CFC7
:1013A00086E0E0E6F1E0DF011D928A95E9F7109210
:1013B0005E0110925D0110925F0108950C94BB01D3
:1013C00080911601811106C087E38093200185E991
:1013D00080931F0120912001A22FA295AF70B0E051
:1013E00091963C9191972F7081E090E0BC01022E84
:1013F00001C0660F0A94EAF7462F40954323919661
:101400004C93919792963C919297362B92963C935F
:10141000929740911F01E42FE295EF70F0E031A127
:101420004F70042E01C0880F0A94EAF7982F909508
:10143000932391A392A1892B82A390968C9190E003
:1014400002C0959587952A95E2F7817020A130E03A
:1014500002C0359527954A95E2F792E020FF90E08B
:10146000892B80936B019091160181E098279093CE
:101470006701891B809366010895CF93E0916B010A
:10148000EE0FEE0F20912001A22FA295AF70B0E0D9
:1014900090968C9190E02F7002C0959587952A9533
:1014A000E2F78170992740911F01A42FA295AF7098
:1014B000B0E090962C9130E04F7002C035952795A2
:1014C0004A95E2F7A9014170552720FF02C042E08A
:1014D00050E0842BE82BE0936B01C0916701EF7023
:1014E000F0E0E15CFE4F808190916A01890F80936A
:1014F0006A0120E0843064F0EC2FF0E0E859FE4F00
:1015000080818F5F808360E08C2F0E94DE0921E064
:1015100080916A018D3F64F4EC2FF0E0E859FE4FB2
:1015200080818150808361E08C2F0E94DE0921E060
:1015300080916A01082E000C990B64E070E00E9413
:10154000002280936A01822FCF910895E091670174
:10155000F0E0E859FE4F2081FC0120830895FF92BE
:101560000F931F93CF93DF93D09166010D2F10E05F
:1015700008591E4FFC01C081F8018081C81BFC2E58
:1015800080E01F147CF09C2FC7FD90E0C91BC111A7
:1015900014C08823E9F0DF91CF911F910F91FF9044
:1015A0000C94100FFA94F80180818F5F808360E0C3
:1015B0008D2F0E94DE0981E0E4CFCF5FF8018081AA
:1015C0008150808361E08D2F0E94DE0981E0DFCFB2
:1015D000DF91CF911F910F91FF9008950F931F936B
:1015E000CF93DF93C42FD22FFC0182818823C9F0CF
:1015F00040936E010E94DA1A90936D0180936C0102
:1016000080E28C0F883008F050C0C77081E001C0C4
:10161000880FCA95EAF7DF91CF911F910F910C9433
:10162000281110916E01141335C080916C019091B6
:101630006D010E94F21A883C910560F5C0E2CD0F61
:101640001D17B9F080E2810F883040F4177081E0F7
:1016500001C0880F1A95EAF70E942F11C83048F48C
:1016600081E09D2F977001C0880F9A95EAF70E943C
:101670002811802F0E942011C830B8F4D77081E063
:1016800001C0880FDA95EAF7DF91CF911F910F9192
:101690000C942F1180E28C0F883038F4C77081E0F1
:1016A00001C0880FCA95EAF7EFCFDF91CF911F9164
:1016B0000F9108950F939C01CB01243F4CE5340713
:1016C00059F1A8F4293DFCE53F0701F12A3D4CE51D
:1016D0003407D1F1283D3C4591F406E221EE41EE7C
:1016E00068ED7CE50E94EE0A80E00F910895263FA8
:1016F000FCE53F07E9F0B0F0273F3C45F9F0FC017D
:101700008281882339F110926E01EFCF07E225EE36
:1017100045EE69ED7CE5E6CF06E221EE40EE64EFB2
:101720007CE5E0CF07E225EE44EE65EF7CE5DACF1D
:1017300006E221EE42EE66EF7CE5D4CF07E225EE2D
:1017400046EE67EF7CE5CECF08E221E045EE6AED9C
:101750007CE5C8CF81E0C9CFCF93DF93EC01FB01DB
:101760008281882309F419C1C230FCE5DF07C0F18A
:10177000C6319CE5D90730F09E012B5F3C452930EE
:10178000310570F50E946B199093500280934F02BF
:10179000C031ECE5DE0709F4CFC008F05BC0C8300B
:1017A0008CE5D80709F4B6C088F5C430ECE5DE074F
:1017B00009F4A8C0C0F4C2308CE5D80709F49CC075
:1017C00080914F028260C330DC4509F498C080915B
:1017D0004F02909150020E9479190E947E1380E07E
:1017E000DF91CF91089580914F028061C630ECE582
:1017F000DE0709F484C080914F028860C730DC4561
:1018000008F47DC080914F02806279C0CC308CE5B5
:10181000D80709F489C070F480914F028C60CA30F7
:10182000ECE5DE0709F46BC008F478C080914F0244
:101830008E7F65C0CE308CE5D80709F479C08091E1
:101840004F028B7FCF30DC4508F459C080914F02A6
:101850008F7E55C0CC3FECE5DE0709F457C030F56C
:10186000C3318CE5D80709F46FC078F4C131ECE5D9
:10187000DE0709F465C0C231DC4509F0A8CF0E943B
:101880007E1380914F028F773AC0C5318CE5D8071F
:1018900009F462C008F476C0809150028160CB3FA9
:1018A000DC4509F094CF8093500291CFC115FDE53E
:1018B000DF0709F44DC088F4809150028D7FCE3F40
:1018C0009CE5D90781F3809150028E7FCF3FDC45A4
:1018D00050F3809150028360E6CFC230FDE5DF0710
:1018E00009F459C008F444C080E0C330DD4509F074
:1018F0006ECF0E94FF196BCF80914F028160809361
:101900004F0265CF80914F028460F9CF80915002E1
:101910008260C9CF80914F028064F1CF0E947E1314
:1019200080914F028068EBCF80914F028D7FE7CF8F
:1019300080914F02877FE3CF80914F028F7DDFCF71
:1019400080914F028F7BDBCF80914F02837FD7CF77
:10195000809150028C7FA7CF80914F0282FB992704
:1019600090F921E0922790FB82F990FB83F9C7CF91
:1019700080915002982F909591708E7F892B90FBCB
:1019800081F991CF0E947E1390914F02892F97FB8E
:1019900087F98058B4CF81E0ACCF81E021CFCF93DD
:1019A000DF93EB0186319C4511F50E94A6189A81C0
:1019B000992399F08A7A91E009F490E090936F016D
:1019C000811109C089E20E9460180E94E91880E034
:1019D000DF91CF91089585E3F6CF80916F0181115A
:1019E00004C089E20E946718F0CF85E3FBCF81E055
:1019F000EFCF61E070E081E291E00C94B90D61E01D
:101A000070E081E291E00C94C00DCF93DF93D62F6C
:101A1000C72F0E945A0E009729F5ED2FFC2FDC01ED
:101A2000AA0FBB1FAB58BE4F2D913C912193319310
:101A300001968630910599F781E891E00E94AF0AFE
:101A40000E944B1B6E5F7F4F8F4F9F4F60937101C2
:101A500070937201809373019093740181E0DF9120
:101A6000CF91089580E0FBCFCF93DF93D62FC72F80
:101A70006091710170917201809173019091740174
:101A80000E942E1BED2FFC2F90E080E021913191E0
:101A9000DC01AA0FBB1FAB58BE4F11963C932E938F
:101AA00001968630910591F781E891E0DF91CF9121
:101AB0000C94A60A8EE1489B02C08150E1F7489B36
:101AC000FECF0895589880E28A95F1F7589A0895C4
:101AD000FC013BE03A95F1F798E020E080E031E04E
:101AE00040E14A95F1F7880F489B02C081602327A7
:101AF00042E04A95F1F7000040E14A95F1F7915034
:101B000079F790E19A95F1F799B132E03A95F1F7CA
:101B1000000040E14A95F1F7917092272081920FE1
:101B200090830895EF92FF920F931F93CF93DF93CB
:101B30000F92CDB7DEB719828C017C01E60EF11C45
:101B40000E151F0561F481E09981911180E00F90DD
:101B5000DF91CF911F910F91FF90EF9008950E9418
:101B60005A0DCE0101960E94680DF80181938F01F4
:101B7000E7CF9093830180938201509A589A0895F9
:101B800090938301809382015098589AE89AE9E6ED
:101B9000F0E080818C7F808308956150770B91E025
:101BA00001C0990F6A95EAF720E031E0911108C071
:101BB000222391F0589A80E28A95F1F75898089577
:101BC000492F482339F0589A232740E24A95F1F7E4
:101BD0009695ECCF5898F9CF5898EDCFFF920F9388
:101BE0001F93CF93DF93EC018C01060F111DC017DB
:101BF000D10731F4DF91CF911F910F91FF9008959C
:101C0000F9900E94620D68E08F2D0E94CD0DEFCFFC
:101C10001F920F920FB60F9211242F933F934F9361
:101C20005F936F937F938F939F93AF93BF93CF9364
:101C3000DF93EF93FF935898509AC0918201D0910F
:101C400083016D81662321F08E819F810E94EE0DBC
:101C50000E94620D80E18A95F1F758985098589A41
:101C600080E18A95F1F76A81662309F18B819C8175
:101C70000E94920DE881F981882311F088E001C06B
:101C800082E080830E945A0DFF91EF91DF91CF9106
:101C9000BF91AF919F918F917F916F915F914F9184
:101CA0003F912F910F900FBE0F901F901895E881D4
:101CB000F981E4CFCF93DF93C0918201D09183016A
:101CC000F894509A589885E08A95F1F7000050985A
:101CD000589A80E28A95F1F7489B0CC0509A589A1E
:101CE000E881F98181E08083789481E090E0DF9160
:101CF000CF9108956D81662381F08E819F810E942E
:101D0000920D81110AC0509A589AE881F98182E0B7
:101D10008083789482E090E0EACF0E945A0D80E2BE
:101D20008A95F1F75898509A80E18A95F1F76A817F
:101D3000662321F08B819C810E94EE0D0E94620D32
:101D4000E881F9811082789490E080E0D0CF909380
:101D50008901809388010895E0918801F0918901BB
:101D6000309721F00190F081E02D099480E00895F2
:101D7000E0918801F0918901309721F00280F38190
:101D8000E02D09940895E0918801F0918901309740
:101D900039F022E0DC012C930480F581E02D0994D8
:101DA000089520918601309187012817390771F035
:101DB0009093870180938601E0918801F0918901D9
:101DC000309721F00680F781E02D09940895209145
:101DD0008401309185012817390771F090938501AE
:101DE00080938401E0918801F0918901309721F07E
:101DF0000084F185E02D099408950E94E61A60930D
:101E0000AB017093AC018093AD019093AE016093F0
:101E1000A7017093A8018093A9019093AA01089546
:101E20000E94E61A6093AB017093AC018093AD0100
:101E30009093AE016093A3017093A4018093A501D8
:101E40009093A601089585B7806885BF85B780689F
:101E500085BF0895089508950C942A0F08950C9451
:101E60002E0F0E94230F86E599E10E94771B0E94A6
:101E70002B0F0C942C0F0C942507089508950E94A5
:101E80003D0F0C943E0F0E94D11A0E94251B0E9408
:101E900048050E94E0090C942F0F8F929F92AF92F9
:101EA000BF92CF92DF92EF92FF920F931F93CF9347
:101EB000DF93CDB7DEB72A970FB6F894DEBF0FBE1B
:101EC000CDBF0E94570681110E94FD0E5BE8852E52
:101ED00051E0952E10E000E0A02E802F0E941C05FE
:101EE0006C01F401E190F1904F01E816F90609F454
:101EF00061C08091430281FD0E942505C7018C25A8
:101F00009D25B12CEE24E394F12C9C012E213F2140
:101F1000232B09F449C00E943B0F8823A9F0BE82FD
:101F2000AF82CE20DF2081E0CD2809F480E08887D1
:101F30000E94DA1A8160782F9A8789874E815F81A3
:101F400068858A850E940410000F111FF801E5576B
:101F5000FE4F80819181E826F926F182E0820E947D
:101F60003D0A81110E94100F0E94C4080E94AC0E0D
:101F700090918A018917A9F10E94AC0E80938A0181
:101F80002A960FB6F894DEBF0FBECDBFDF91CF917A
:101F90001F910F91FF90EF90DF90CF90BF90AF9087
:101FA0009F908F900C942303B394EE0CFF1CF9E0E8
:101FB000BF12ABCF0F5F1F4F0C30110509F08CCF54
:101FC0008FEF89838A831B820E94DA1A8160782FBF
:101FD0009D838C8349815A816B818D810E9404107D
:101FE000BECF2A960FB6F894DEBF0FBECDBFDF91ED
:101FF000CF911F910F91FF90EF90DF90CF90BF9006
:10200000AF909F908F900895DF92EF92FF920F9381
:102010001F93CF93DF93CDB7DEB72B970FB6F8940E
:10202000DEBF0FBECDBF7A878B87F42E052F162F0C
:10203000E72ED82E61110E94C6181E821D827E2DA9
:10204000EC82DD824F2D502F612F8D2D9E812B969E
:102050000FB6F894DEBF0FBECDBFDF91CF911F91B9
:102060000F91FF90EF90DF900C94F415FC018081AC
:1020700091810C943218CF93C82F882309F471C032
:102080008238C1F40E94AC0E81FD6BC089E30E94CE
:1020900060180E94E9182FEF81EE94E021508040F3
:1020A0009040E1F700C0000089E30E946718CF91DB
:1020B0000C94E9188338A1F40E94AC0E80FD51C045
:1020C00083E50E9460180E94E9182FEF81EE94E0EA
:1020D000215080409040E1F700C0000083E5E5CF4B
:1020E0008438A1F40E94AC0E82FD3BC087E40E94BC
:1020F00060180E94E9182FEF81EE94E02150804093
:102100009040E1F700C0000087E4CFCF8CEF8C0F48
:10211000813A90F46C2F8091290190912A010E94BC
:10212000161A882329F08C2F0E9467180E94E9183C
:102130008C2F0E946018BBCF80E28C0F883048F44F
:10214000C77081E001C0880FCA95EAF70E94A918FC
:10215000AECFCD3E30F08C2F0E94D607CF910C949D
:10216000A908CF910895882309F452C0823871F4E8
:102170000E94AC0E81FF4CC089E30E9460180E944F
:10218000E91889E30E9467180C94E918833859F418
:102190000E94AC0E80FF3CC083E50E9460180E9444
:1021A000E91883E5EFCF843859F40E94AC0E82FF22
:1021B0002FC087E40E9460180E94E91887E4E2CFEC
:1021C0009CEF980F913AF0F290E2980F983050F40B
:1021D000877091E001C0990F8A95EAF7892F0E94D4
:1021E000AF18D2CF9BE5980F933020F490E080E0B9
:1021F0000C94D10E98E5980F973120F490E080E090
:102200000C94E70E8D3E20F00E9430080C94A90833
:1022100008951F93CF93DF93182FEB010E943B107B
:10222000209731F4812FDF91CF911F910C94B3103F
:102230008FE99FE00197F1F700C000002197F0CFF0
:1022400070E060E0893311F460E570E00C940911EE
:10225000882321F00E94A9180C94E9180895882376
:1022600021F00E94AF180C94E9180895BF92CF9204
:10227000DF92EF92FF920F931F93CF93DF936C0146
:10228000D62FC72FFC011281058102950F700E9485
:102290007E18E82E8823A1F0E12E112389F08C2FDF
:1022A000807F803429F080E28D0FE12C883040F06F
:1022B00082E00E943A190E947E1891E0E82EE926F9
:1022C000BC2EB2949FE0B922FBE0FB1598F1EB2DF8
:1022D000F0E0EE58FD4D0C9414220C2F0F70C07FCF
:1022E00011F00295007F1123A9F0002359F080E23C
:1022F0008D0F883010F0D11109C0802F0E94A918CD
:102300000E94E9188D2F0E943B1014C0802F0E945C
:10231000B918F6CF8D2F0E94B310002359F080E238
:102320008D0F883010F0D1112CC0802F0E94AF1873
:102330000E94E9182B2D2850330B2430310520F44E
:102340000E94AC0E0E942303EE2009F472C10E9489
:102350007A1880FD6EC1F60112820E9474180E94E4
:102360000017C6010E943A130E947418DF91CF91A2
:102370001F910F91FF90EF90DF90CF90BF900C9442
:102380002117802F0E94BF18D3CF2C2F2F70F22E31
:10239000C07FC03219F0F29480EFF822DD2369F09B
:1023A000D13049F1112391F1002351F1F6018581DA
:1023B00080FFA8CF8F70858323C0112381F0011186
:1023C00006C00E94CC188F290E942811B3CF01307B
:1023D000C1F70E94CC188F290E94D218ABCF0111EF
:1023E00006C00E94DF188F2D0E942F11A3CF01304D
:1023F00009F4A0CFF6CF112329F0063008F09ACFC8
:102400008F2DE2CF053008F095CFEDCF002359F3A3
:10241000D93349F4FFEF27EE33E0F150204030404C
:10242000E1F700C000008D2F0E94B31083CF8D2FE5
:10243000112329F00E94D6070E94A9087BCF0E9491
:102440003008FACF8C2F837009F041C0111172CF80
:102450004D2F429546954770440F440F0D2F0F7036
:1024600010E030E020E0042E04C0000F111F221FF6
:10247000331F0A94D2F760E070E0CB01D4FF0FC0A5
:102480006FE070E080E090E004C0660F771F881F67
:10249000991F4A95D2F76095709580959095C6954D
:1024A000C695C370602B712B822B932BC23049F0E1
:1024B00058F4C13019F00E94B2163CCF0E94A01609
:1024C00039CF0E94C41636CF0E949E1633CF869510
:1024D000112311F08C2F8170882309F42BCF4D2FFD
:1024E000429546954770440F440F0D2F0F7010E032
:1024F00030E020E0042E04C0000F111F221F331F04
:102500000A94D2F760E070E0CB01D4FF0FC06FE017
:1025100070E080E090E004C0660F771F881F991F6D
:102520004A95D2F76095709580959095C695C69519
:10253000C370602B712B822B932BC23049F058F45F
:10254000C13019F00E947717F5CE0E946517F2CEC0
:102550000E948917EFCE0E94DA16ECCECF701123BD
:1025600029F08C2F0E9400178D2F2ECF8D2F0E94C7
:102570002F118C2F0E942117DDCED23F89F160F4FC
:10258000D03FC9F0D13F29F1112309F442C0011114
:10259000B9CE8C2F8F7121C0D33F39F1D43FA1F731
:1025A000112369F1CF718C2F0E94001763E08C2FEB
:1025B0000E941F19BFCE112341F0053008F0BACE9A
:1025C0008C2F8F710E944417B5CE063008F0B2CE22
:1025D000F7CF8C2F8F71112369F20E940017AACEBA
:1025E0008C2F8F711123C9F3C5CF112329F08C2FA4
:1025F0008F710E94EB169ECE0E94E6169BCE81E064
:102600000E943A19023008F495CE82E00E943A19ED
:1026100091CE002359F0D93309F005CF8FEF97EE13
:10262000E3E081509040E040E1F7FBCE8C2F8F71CA
:10263000A1CFDF91CF911F910F91FF90EF90DF908D
:10264000CF90BF9008950F931F93CF93DF93EC012A
:10265000688179818A810E943C188C010E949B17B5
:102660000E949D16B801CE01DF91CF911F910F916D
:102670000C943611CF93DF93EC018B819C81892BD5
:1026800029F08881998189238F3F59F4DF91CF9177
:102690000895CE010E942313CE01DF91CF910C94B7
:1026A0009902CE010E94BC028111F3CF0E947E18D4
:1026B000882361F38A81882349F382E0DF91CF91F7
:1026C0000C943A19882321F00E94B9180C94E91847
:1026D0000895882321F00E94BF180C94E9180895EA
:1026E0000E94C6180E94C9180E94E9180E94D009C9
:1026F0000C94A9080E946E180C9470130E94B618CE
:102700000C947A13E92FE295EF70E250EE3070F4FA
:10271000F0E0E258FD4D0C941422803F19F020F4B3
:10272000883E20F481E00895843FE1F380E008953D
:10273000883EC0F3813FD1F7F5CF93FB882780F91E
:1027400008950E9432180C948213CF93DF9300D027
:1027500000D00F92CDB7DEB70F900F900F900F9073
:102760000F90DF91CF910895CF93DF9300D000D0E9
:1027700000D0CDB7DEB726960FB6F894DEBF0FBEF9
:10278000CDBFDF91CF9108951F93CF93DF93C09179
:10279000B00116E08091B1018C1304C0DF91CF919C
:1027A0001F910895D0E01C9FF0011D9FF00D112492
:1027B000EE54FE4F40815181628173818481958105
:1027C0000E94B4132196C770E5CF4091E201509169
:1027D000E3016091E4017091E5018091E60190913F
:1027E000E7010C94B4131F93CF93DF938091E7011B
:1027F000807FA9F48091E401882389F08091B00161
:10280000C091B1016091E2017091E301A091E501F5
:10281000B091E601D62FD72316E0C81304C0DF918C
:10282000CF911F91089590E0109711F0DF3F19F4B8
:1028300001968770F2CF189F9001199F300D1124D7
:10284000F901EE54FE4F41814713F2CF4081461308
:10285000EFCF42814111ECCF438154814A1B5B0B86
:10286000483C510528F78091E7018F708061809383
:10287000E701F901E954FE4F80818F708061808308
:1028800082EE91E00E943A13DF91CF911F910C9458
:10289000C413AF92BF92CF92DF92EF92FF920F9349
:1028A0001F93CF93DF93CDB7DEB761970FB6F89440
:1028B000DEBF0FBECDBF8C0185E0F801DE011D96A5
:1028C00001900D928A95E1F7F80140815181E280F3
:1028D00082EEC82E81E0D82E6091E5017091E6016C
:1028E0006115710509F461C19091E2012091E30144
:1028F000892F82238F3F09F458C1A380B480F090C0
:10290000E401F501E61BF70BFF2009F4FCC0809100
:10291000E701382F307FE83CF10508F0B2C03111F3
:1029200079C0FE2C251323C0941321C0E1101FC0D1
:102930008F7080618093E7010E94E513C6010E94B9
:102940003A138091E701F80185838F2D61960FB6C8
:10295000F894DEBF0FBECDBFDF91CF911F910F91D5
:10296000FF90EF90DF90CF90BF90AF900895AB288D
:1029700029F0842F85238F3F09F033C180E0F82FA1
:10298000F170DF2E80FF3CC08091B0012091B10139
:1029900036E0821315C04D875E878D859E850E9427
:1029A0003218292F22952F702230F0F0243018F59C
:1029B0009F70F1F0F8019581907FD1F4D12C1EC069
:1029C00090E0389FF001399FF00D1124EE54FE4F36
:1029D0006181651306C06081641303C062816E115A
:1029E0000FC001968770D5CF9F7011F0882331F307
:1029F000805E883018F3C8010E943A13FD2CA5CFE1
:102A0000EE2009F4A2CF8091E70181608093E70175
:102A1000F12C9BCF251306C0941304C0F801EE20BF
:102A200009F48DC04D875E878D859E850E94A11318
:102A3000882319F1EE2009F18091E701803270F0CE
:102A40002091E2013091E30138872F831986BB86FC
:102A5000AA868C87CE0107960E943A1386E0F80179
:102A6000A2EEB1E001900D928A95E1F70E94F31376
:102A70000E94E513FF24F39468CFC8010E943A1323
:102A8000F9CF311113C07A2DB98AA88A6E2D8989A0
:102A90000E94A51382EE91E00E943A1386E0F601AF
:102AA00011928A95E9F70E94E513B2CF25130FC062
:102AB00094130DC0E1100BC0F8018583C8010E947A
:102AC0003A1386E0F60111928A95E9F73ECF4D87D9
:102AD0005E878D859E850E94A113882371F2EE206A
:102AE00061F28091E701803208F4B8CF2091E201D1
:102AF0003091E3013A8329831B82BD82AC828E83AD
:102B0000CE010196A9CFE83CF10508F041C0FE2CAA
:102B1000EE2009F4B2CF25132AC0941328C0809167
:102B2000E70180FD1BC0982F907FC1F0F8018583DD
:102B3000903F31F0982F907F905F8F70892B858325
:102B4000C8010E943A1386E0F801A2EEB1E00190BC
:102B50000D928A95E1F70E94E513F7CE86E0F80121
:102B6000A2EEB1E001900D928A95E1F7EECE4D878D
:102B70005E878D859E850E94A11381116FCF809104
:102B8000E70181608093E701C8010E943A13DDCE1E
:102B90007A2DB98AA88A6E2D89890E94A51386E0AC
:102BA000F60111928A95E9F7D6CFEE2009F465CFA8
:102BB0004D875E878D859E850E94A113F82E882300
:102BC00009F45BCF86E0F801A2EEB1E001900D922E
:102BD0008A95E1F782EE91E00E9436100E94F3138D
:102BE000BACF81E08E25CBCE1F93CF93DF93CDB7A5
:102BF000DEB72C970FB6F894DEBF0FBECDBF4F8364
:102C0000588769877A878B879C87CE0107960E94B1
:102C10004914882369F08A859B85892B39F04F8177
:102C20005885842F85238F3F09F071C016E05FC05F
:102C300086E0FE013796DE01119601900D928A958D
:102C4000E1F78A859B85892B89F38F819885892374
:102C50008F3F61F32091B10130E0C9010196877087
:102C600099274091B0014817190671F40E947E130C
:102C70001092B1011092B00186E0E2EEF1E0DF01C6
:102C80001D928A95E9F7D2CF96E0929FD001939F4B
:102C9000B00D1124AE54BE4FFE01319601900D923D
:102CA0009A95E1F78093B1010E94C413BFCF819F31
:102CB000C00111248E549E4F0E9449148823E9F0CC
:102CC000E091B0011E9FF0011124EE54FE4F4081AF
:102CD000518162817381848195810E94B4138091B6
:102CE000B00190E00196877099278093B0018091A0
:102CF000B0019091B1018913DACF2C960FB6F894F8
:102D0000DEBF0FBECDBFDF91CF911F9108956985C2
:102D10007A858B859C850E94B41388CF08950C9486
:102D20008E160E948F166093320270933302809346
:102D30003402909335020C94701308950C949116FC
:102D40000F931F93009132021091330220913402AD
:102D500030913502602B712B822B932B1F910F9199
:102D60000C9491160F931F9300913202109133022D
:102D70002091340230913502602371238223932302
:102D80001F910F910C9491160F931F930091320293
:102D9000109133022091340230913502602771275F
:102DA000822793271F910F910C9491160C948E16E5
:102DB0000C94D6160E94D81660932E0270932F02A0
:102DC00080933002909331020C94701360E070E0B5
:102DD000CB010C94DA160F931F9341E050E060E0B2
:102DE00070E08A019B0104C0000F111F221F331FD6
:102DF0008A95D2F7C901B8011F910F910C94DA1688
:102E00000F931F9341E050E060E070E004C0440F76
:102E1000551F661F771F8A95D2F780912E029091D9
:102E20002F02A0913002B09131028A019B01082B40
:102E3000192B2A2B3B2BC901B8011F910F910C9420
:102E4000DA160F931F9341E050E060E070E004C099
:102E5000440F551F661F771F8A95D2F7CB01BA0121
:102E6000609570958095909500912E0210912F029B
:102E70002091300230913102602371238223932309
:102E80001F910F910C94DA160F931F9341E050E0BD
:102E900060E070E004C0440F551F661F771F8A95DD
:102EA000D2F780912E0290912F02A0913002B09122
:102EB00031028A019B01082719272A273B27C901CC
:102EC000B8011F910F910C94DA160F931F93009184
:102ED0002E0210912F022091300230913102602B8E
:102EE000712B822B932B1F910F910C94DA160F9359
:102EF0001F9300912E0210912F02209130023091E9
:102F0000310260237123822393231F910F910C942C
:102F1000DA160F931F9300912E0210912F02209129
:102F200030023091310260277127822793271F9149
:102F30000F910C94DA16089529E0929F800D1124C8
:102F4000982F977041E001C0440F9A95EAF7869553
:102F50008695869595E0899FF0011124E851FE4FF2
:102F600090E080E070E05191DF0111979B01082E05
:102F700002C0369527950A94E2F7217021952527FE
:102F8000242325272C9301968530910561F7089518
:102F900029E0929F800D1124982F97708695869531
:102FA000869525E0829FF0011124E851FE4F50E004
:102FB00040E080E0219130E0092E02C0369527954F
:102FC0000A94E2F721703327042E01C0220F0A94DD
:102FD000EAF7822B4F5F5F4F4530510559F708954F
:102FE000BF92CF92DF92EF92FF920F931F93CF93F6
:102FF000DF938C01C0902E02D0902F02E09030021F
:10300000F09031028091320290913302A09134020B
:10301000B0913502C82AD92AEA2AFB2ACFE1D0E0AA
:10302000BC2ED701C6010C2E04C0B695A795979566
:1030300087950A94D2F780FD0EC0219788F7B12CAE
:103040008B2DDF91CF911F910F91FF90EF90DF902B
:10305000CF90BF900895B8018C2F0E943F03019735
:1030600061F3EECFCF93DF93EC010E94F017BE0126
:10307000DF91CF910C943F031F93CF93DF93EB012C
:103080009091AF01992331F0CB01DF91CF911F9146
:103090000C943218882379F0CB010E94F017182F76
:1030A000682FCE010E949C17BE01812FDF91CF9126
:1030B0001F910C943F03CB010E94C817182FF4CF27
:1030C000682F8091290190912A010C944C1A682F45
:1030D0008091290190912A010C944E1A8091290126
:1030E00090912A010C94501A80913602859585950D
:1030F00085950895809136028770089590913602E3
:10310000977081E009F480E008959091500292FB5D
:10311000222720F9281751F080FB92F99093500252
:1031200080914F02909150020C94791908958091EA
:10313000500282FB882780F991E089270C9485183A
:1031400081E00C94851880E00C94851880914202EF
:10315000089590914202892B8093420208958095B0
:103160009091420298239093420208951092420255
:10317000089590914102892B809341020895809592
:103180009091410298239093410208951092410238
:10319000089510924002089580913702089508958D
:1031A0000C94CF189091500292FD08C09091370274
:1031B000981721F0809337020C94D01808958091CD
:1031C0003702882329F01092370280E00C94D0183F
:1031D0000895E0912901F0912A01809142028083B3
:1031E000E0912901F0912A01808190914102892B7F
:1031F0008083E0912901F0912A0180819091400221
:10320000892B808390913702992381F0E0912901E5
:10321000F0912A018081892B8083809129019091EE
:103220002A010E94041A81110E94DF18809129014D
:1032300090912A010C94B80E08950C941C19909149
:10324000500292FD10C098E0899F90011124622BDA
:10325000609336020E94001780913602859585950D
:1032600085950C941D190C9400171092360280E07D
:103270000C941D1990913602809589238093360213
:10328000282F277039F4282F082E000C330B9217A3
:10329000130621F49091500292FF07C08595859501
:1032A00085950E9421170C943519089580E00895A2
:1032B00090E080E00E94362221E08A3E9E4F09F095
:1032C00020E0822F089582E090E00C942E2283E08B
:1032D00090E00C942E22CF9384E090E00E942E2266
:1032E000C82F82E290E00E942E22982F8C2FCF913F
:1032F0000895CF93C92F682F84E090E00E943C226C
:103300006C2F82E290E0CF910C943C22AB01BC0187
:103310008FE090E00C944E22AB01BC0183E190E081
:103320000C944E2260E070E0CB010C948C1960E0AC
:1033300070E0CB010E9486190C9492196AEE7EEF20
:1033400090E080E00E945A2260E082E090E00E94DB
:103350003C2260E083E090E00E943C221092320226
:1033600010923302109234021092350260E084E031
:1033700090E00E943C2260E082E290E00E943C22C9
:1033800060E085E090E00E943C2260E086E090E012
:103390000E943C226FEF87E090E00E943C2240E0D8
:1033A00050E0BA0188E090E00E944E2260E08DE09B
:1033B00090E00E943C2240E050E0BA0188E190E0B9
:1033C0000E944E2260E087E190E00E943C2240E0B3
:1033D00050E0BA018CE190E00E944E2270E060E083
:1033E00080E290E00E945A2240E050E0BA0188E179
:1033F00090E00E944E220C9497190C949E19682F0D
:103400008EE090E00C943C229C012E5F3F4FAC017B
:10341000485F5F4F80E02417350709F40895F901EC
:1034200091919F019923B9F38F5FF5CF662349F0FE
:10343000FC01329608962191261729F0E817F90722
:10344000D1F780E0089581E008959C01FC01329657
:103450009FEF80E04191461751F09F3F19F44111D1
:1034600001C0982F8F5F8630A9F79F3F09F4089518
:10347000290F311D97FD3A95F90162830895FC01EA
:10348000329608962191261303C0DF0111971C92F2
:10349000E817F907B9F708950C94251A0C943F1A08
:1034A000029626E0FC0111922A95E9F70895089505
:1034B00008950C94581A80918F02843049F10E942B
:1034C000591A80E00E9423031092440288E190E0A0
:1034D00020E40FB6F894A895809360000FBE209367
:1034E000600083B7817F846083BF83B7816083BFBF
:1034F0007894889583B78E7F83BF0FB6F894A8958C
:1035000080916000886180936000109260000FBE1F
:1035100008950895CF930E94571A0E9457060E945B
:10352000891AC0E08C2F0E941C05892B31F4CF5FD3
:10353000CC30C1F780E0CF91089581E0FCCF0895B1
:103540000C949F1A0E947E130E94AC0E0E942303CB
:103550000C94A01A1F921FB61F9211248F939F9351
:10356000AF93BF9380914402811113C08091830275
:1035700090918402A0918502B09186024196A11D8E
:10358000B11D8093830290938402A0938502B0932F
:103590008602BF91AF919F918F911F901FBE1F9088
:1035A000189582E084BD93E095BD9AEF97BD809316
:1035B0006E0008952FB7F894809183029091840251
:1035C000A0918502B09186022FBF08952FB7F8947D
:1035D00060918302709184028091850290918602AD
:1035E0002FBF08959C014FB7F8948091830290916A
:1035F0008402A0918502B09186024FBF821B930B7B
:10360000089578941F921FB61F9211248F939F9351
:10361000AF93BF938091830290918402A091850221
:10362000B09186020196A11DB11D809383029093F3
:103630008402A0938502B0938602BF91AF919F91BF
:103640008F911F901FBE1F901895109287021092A5
:1036500088021092890210928A020895CF92DF9216
:10366000EF92FF926B017C010E94250781110EC031
:103670000E94E61AC61AD70AE80AF90AC092870217
:10368000D0928802E0928902F0928A02FF90EF9035
:10369000DF90CF9008950F931F930E9425078823F2
:1036A00021F01F910F910C94E61A0E94E61A0091E6
:1036B0008702109188022091890230918A02600F5E
:1036C000711F821F931F1F910F91089587E797E73E
:1036D000909301088093000888E19AE00FB6F8946F
:1036E000A895809360000FBE90936000FFCF9093E9
:1036F000510180935001089580914D0208950895DD
:103700009C0182E08093E9009FEF8091E800915056
:1037100085FD06C085ED8A95F1F700009111F5CF82
:103720008091E80085FF0CC050E040E066E070E06A
:10373000C9010E945D1D8091E8008E778093E800AA
:103740000895CF93DF93EC0181E08093E9008FEF40
:103750009091E800815095FD06C095ED9A95F1F79E
:1037600000008111F5CF8091E80085FF14C050E082
:1037700040E068E070E0CE010E945D1D8091E800AD
:103780008E778093E80088E0FE01A5E4B2E0019026
:103790000D928A95E1F7DF91CF9108950895809178
:1037A0008E02811109C00E94ED1E0E944A1F809165
:1037B000E20084608093E200089510928E020895E2
:1037C00008950895089542E061EC81E00E94691E29
:1037D00042E261EC82E00C94691E80919102833098
:1037E00009F45FC030F48130C1F1823009F49BC02C
:1037F00008958A3009F487C08B3009F46DC0893090
:1038000009F04EC080919002813209F049C0809148
:10381000940290919502029708F042C08091E800CE
:10382000877F8093E8008091E80082FF35C0909107
:10383000F3008091F200029729F48091F1008B7FD0
:10384000813021F48091F10080934D028091E80055
:103850008B778093E8000C949D1E80919002813AB2
:10386000F9F48091E800877F8093E80080919402CA
:1038700090919502892B61F468E085E492E070E014
:103880000E94AC1D8091E8008B778093E80008953A
:1038900060E090E080E0F3CF80918F028111C3CF90
:1038A000089580919002813AD9F780919402909185
:1038B0009502892BA9F78091E800877F8093E80023
:1038C0008091E80080FFFCCF809135018093F1006A
:1038D0008091E8008E77BDCF80919002813201F710
:1038E0008091940290919502892BD1F68091E80005
:1038F000877F8093E8000E949D1E809192028093B2
:1039000035010C947E1380919002813249F68091AA
:10391000E800877F8093E8000E949D1E80919302BB
:1039200080934E02089580919002813A09F0B8CFB9
:103930008091E800877F8093E8008091E80080FF15
:10394000FCCF80914E02C2CF84B7877F84BF0FB671
:10395000F894A8958091600088618093600010922F
:1039600060000FBE80E890E00FB6F894809361008D
:10397000909361000FBE0E94310F0E94ED1E0E94C5
:103980004A1F8091E20084608093E20078940E9454
:10399000D3210E94430F8BE291E00E94A70E8091F9
:1039A0008F02853099F00E944D0F0E943F0FF7CF94
:1039B0000E945B1A80918D02882341F00E948A1A2E
:1039C000882321F00E94471D0E947E1380918F0260
:1039D000853071F30E94A21AE6CF0C94EF1C292FB8
:1039E00033272330310519F168F42130310509F40A
:1039F00044C02230310509F445C090E080E030E059
:103A000020E025C02132310549F122323105A9F7E4
:103A100080E490E022E532E061157105C1F089E4AF
:103A200090E029E032E06130710589F0E6CF992716
:103A30008130910581F0009729F00297F1F6E4E8D2
:103A4000F1E002C0E8EBF1E0849190E09F01FA011F
:103A5000318320830895ECE9F1E0F6CF89E090E02E
:103A60002EEC31E06115710591F389E090E027EECD
:103A700031E06130710559F3C0CF82E190E027EF6A
:103A800031E0E5CF8BE390E02CEB31E0E0CF80E15B
:103A900089BD82E189BD09B400FEFDCF8091D800C7
:103AA0008F7D8093D8008091E00082608093E00059
:103AB0008091E00081FDFCCF0895AF92BF92CF923C
:103AC000DF92FF920F931F93CF93DF936C01EB0173
:103AD0008A010E94BC1EF82E811123C00115110518
:103AE00039F0F80180819181C81BD90BC80ED91E0D
:103AF000B12CA12C2097A9F08091E80085FD22C06F
:103B00008091E8008E778093E80001151105A1F0FF
:103B1000F80180819181A80EB91EB182A08285E052
:103B2000F82E8F2DDF91CF911F910F91FF90DF9095
:103B3000CF90BF90AF9008950E94BC1E8823D1F211
:103B4000F82EEFCFF60181916F018093F10021975C
:103B5000FFEFAF1ABF0ACECFFC0180919602909181
:103B6000970286179707A0F06115710529F49091C7
:103B7000E8009E779093E80090E06115710551F49C
:103B8000911108C08091E80082FF34C080E0089560
:103B9000BC01F2CF80918F028823C1F18530C1F141
:103BA0008091E80083FD30C08091E80082FDEACF7B
:103BB0008091E80080FFE1CF8091F3002091F20036
:103BC000382F6115710519F02830310558F091E052
:103BD0002830310509F090E02091E8002E772093FD
:103BE000E800CBCF81918093F100615071092F5F84
:103BF0003F4FE7CF80918F02882341F0853041F01D
:103C00008091E80083FFBECF81E0089582E00895AF
:103C100083E00895FC0180919602909197028617A7
:103C20009707A0F06115710529F48091E8008E775F
:103C30008093E80090E06115710551F4911108C07E
:103C40008091E80082FF35C080E00895BC01F2CF8A
:103C500080918F028823C9F18530C9F18091E800F5
:103C600083FD31C08091E80082FDEACF8091E800B9
:103C700080FFE1CF8091F3002091F200382F611591
:103C8000710519F02830310558F091E028303105E0
:103C900009F090E08091E8008E778093E800CBCF28
:103CA00084918093F1003196615071092F5F3F4FED
:103CB000E6CF80918F02882341F0853041F08091DA
:103CC000E80083FFBDCF81E0089582E0089583E09E
:103CD0000895982F973028F08F708093E90081E045
:103CE00008959093E900242F762F50E0981731F033
:103CF0007091EC002091ED005091F00021FD02C088
:103D00009F5FE8CF3091EB003E7F3093EB00309126
:103D1000ED003D7F3093ED003091EB00316030934A
:103D2000EB007093EC002093ED005093F000209195
:103D3000EE0027FDE5CF80E008958091900287FF97
:103D400013C08091E80082FF06C08091E8008B7765
:103D50008093E80004C080918F028111F2CF089512
:103D600080918F028823D9F38091E80080FFF8CFFB
:103D70008091E8008E77ECCF2091E4003091E5004F
:103D800095E6A9012091EC00822F817020FF06C0EA
:103D90008091E80080FF06C080E008952091E8004F
:103DA00022FD1AC080918F02882389F0853089F026
:103DB0008091EB0085FD0FC02091E4003091E5007B
:103DC00042175307F9F29150E1F684E0089582E03A
:103DD000089583E0089581E008950E945B1F0E948A
:103DE000631FE0EEF0E0808181608083E8EDF0E029
:103DF00080818F77808319BCA7EDB0E08C918E7F96
:103E00008C9380818F7E808310928E0208950F9311
:103E10001F93CF93DF930E945B1F0E94631FC8ED27
:103E2000D0E088818F7788838881806888838881C3
:103E30008F7D888319BC10928F0210928B02109292
:103E40008D0210928C0200EE10E0F80180818B7FD1
:103E5000808388818160888342E060E080E00E9406
:103E6000691EE1EEF0E080818E7F8083E2EEF0E07B
:103E7000808181608083808188608083F801808177
:103E80008E7F8083888180618883DF91CF911F91AD
:103E90000F910895E8EDF0E080818F7E8083E7ED5B
:103EA000F0E080818160808384E082BF81E0809344
:103EB0008E020C94071FE8EDF0E080818E7F8083F6
:103EC0001092E20008951092DA001092E100089535
:103ED0001F920F920FB60F9211242F933F934F937F
:103EE0005F936F937F938F939F93AF93BF93EF9362
:103EF000FF938091E10082FF0BC08091E20082FF7E
:103F000007C08091E1008B7F8093E1000E94D22165
:103F10008091DA0080FF19C08091D80080FF15C021
:103F20008091DA008E7F8093DA008091D90080FF43
:103F300096C080E189BD82E189BD09B400FEFDCF54
:103F400081E080938F020E94CF1B8091E10080FF6F
:103F500019C08091E20080FF15C08091E2008E7F41
:103F60008093E2008091E20080618093E200809182
:103F7000D80080628093D80019BC85E080938F02BE
:103F80000E94E11B8091E10084FF2BC08091E20040
:103F900084FF27C080E189BD82E189BD89B5982F62
:103FA000917080FFFBCF8091D8008F7D8093D800E7
:103FB0008091E1008F7E8093E1008091E2008F7E0E
:103FC0008093E2008091E20081608093E200809122
:103FD0008B02882309F449C084E080938F020E94F9
:103FE000E21B8091E10083FF29C08091E20083FF02
:103FF00025C08091E100877F8093E10082E080937B
:104000008F0210928B028091E1008E7F8093E100FD
:104010008091E2008E7F8093E2008091E2008061D7
:104020008093E20042E060E080E00E94691E80919F
:10403000F00088608093F0000E94E01BFF91EF91F8
:10404000BF91AF919F918F917F916F915F914F91B0
:104050003F912F910F900FBE0F901F90189519BC94
:1040600010928F020E94DD1B70CF8091E30087FDCC
:1040700093E090938F02B3CF1F920F920FB60F92DF
:1040800011242F933F934F935F936F937F938F935D
:104090009F93AF93BF93CF93DF93EF93FF93D09111
:1040A000E900DF708091EC00C82FC17080FDC0E88E
:1040B0001092E9008091F000877F8093F00078945F
:1040C0000E9480201092E9008091F0008860809327
:1040D000F000CD2BCF70C093E900FF91EF91DF91FD
:1040E000CF91BF91AF919F918F917F916F915F9190
:1040F0004F913F912F910F900FBE0F901F901895E9
:104100001F93CF93DF93CDB7DEB7AA970FB6F8947E
:10411000DEBF0FBECDBF80E992E02091F100FC012F
:104120002193CF01F2E088399F07B9F70E94ED1B78
:104130008091E80083FF1EC18091900290919102CE
:104140009A3008F017C1E92FF0E0E457FD4D0C94C8
:104150001422803899F0823809F00CC180919402C1
:104160008F70873008F006C18093E9008091EB00E2
:1041700085FB882780F91092E90006C080918C02A7
:1041800090918D02911182609091E800977F9093B9
:10419000E8008093F1001092F1008091E8008E77A2
:1041A000E5C0882309F4D3C0823009F0E3C08091D0
:1041B00092028111D6C0809194028F702FEF280F48
:1041C000263008F0D7C08093E9002091EB0020FF53
:1041D000C8C0933031F48091EB0080628093EB0093
:1041E000C0C09091EB0090619093EB0021E030E033
:1041F00001C0220F8A95EAF72093EA001092EA00A4
:104200008091EB008860EACF8111B4C010919202D6
:104210001F778091E3008078812B8093E300809169
:10422000E800877F8093E8000E949D1E8091E8004F
:1042300080FFFCCF8091E30080688093E30082E000
:10424000111183E080938F0295C08058823008F06E
:1042500091C080919202909193028C3D23E092074D
:10426000A1F583E08A838AE289834FB7F894DE015F
:10427000139620E03EE051E2E32FF0E05093570028
:10428000E49120FF03C0E295EF703F5FEF708E2F47
:1042900090E0EA30C0F0C7968D939D932F5F243154
:1042A00059F74FBF8091E800877F8093E8006AE26A
:1042B00070E0CE0101960E94AC1D8091E8008B77E2
:1042C0008093E80057C0C096E7CF60919402709148
:1042D0009502AE014F5F5F4F0E94ED1CBC01892B20
:1042E00009F448C09091E800977F9093E800898195
:1042F0009A810E940A1EE1CF8038E1F58091E800A2
:10430000877F8093E80080918B028093F10045CFF6
:10431000811130C090919202923060F58091E80056
:10432000877F8093E80090938B020E949D1E80916E
:104330008B02882311F084E005C08091E30087FDA3
:10434000FACF81E080938F020E94E31B13C080911B
:104350009202813079F481E0933009F080E080931B
:104360008D021092E9008091E800877F8093E80039
:104370000E949D1E8091E80083FF0AC08091E800A2
:10438000877F8093E8008091EB0080628093EB0050
:10439000AA960FB6F894DEBF0FBECDBFDF91CF91C6
:1043A0001F9108950895CF9380918F028823A1F0E3
:1043B000C091E900CF709091EC00892F817090FD41
:1043C00080E8C82B1092E9008091E80083FD0E94EC
:1043D0008020CF70C093E900CF9108950E94ED1E18
:1043E00010928F020895E8EDF0E080818061808373
:1043F0008AE18A95F1F700C08091D9008170089513
:1044000097FB072E16F4009407D077FD09D00E9481
:104410001A2207FC05D03EF4909581959F4F089590
:10442000709561957F4F0895EE0FFF1F0590F491F1
:10443000E02D0994AA1BBB1B51E107C0AA1FBB1F9B
:10444000A617B70710F0A61BB70B881F991F5A9520
:10445000A9F780959095BC01CD010895F999FECFFB
:1044600092BD81BDF89A992780B50895A8E1B0E082
:1044700042E050E00C946222262FF999FECF92BDC3
:1044800081BDF89A019700B4021639F01FBA20BD19
:104490000FB6F894FA9AF99A0FBE08950396272F4B
:1044A0000E943D220E943C22252F0E943D22242F63
:1044B0000C943D220196272F0E943D220C943C2211
:1044C000DC01CB01FC01F999FECF06C0F2BDE1BDD4
:1044D000F89A319600B40D9241505040B8F70895C3
:1044E000F894FFCF6D116D11C511C5119A111712F6
:1044F0009A119A112212AE12BD12BD128D138D1394
:104500009613961398139613961396138D138D1373
:104510009D13961396139D13A920D120BA21D12063
:0C452000BA2104212521BA217C21882128
:10452C0002F5F43534C697919293F6F7313332365F
:10453C00000000000000012808641E140A321E94BA
:10454C006670010471010D750138027C1BA11B8082
:10455C001B7F1BCE1B01939291946697C63435003A
:10456C00FF0100010000FFFF0000010001FF00003F
:00000001FF
